:100000000C942A000C943F000C943F000C943F0089
:100010000C943F000C943F000C943F000C943F0064
:100020000C943F000C943F000C943F000C943F0054
:100030000C943F000C943F000C943F000C943F0044
:100040000C943F000C943F000C943F000C943F0034
:100050000C943F0011241FBECFE5D4E0DEBFCDBF1E
:1000600010E0A0E6B0E0E4E0F1E002C005900D92FF
:10007000AC36B107D9F70E946F000C9480000C9445
:10008000000082BBA898AA9A8FE19EE40197F1F73D
:1000900000C00000AA98089588E30E94410081E012
:1000A0000E9441008CE00E94410086E00C944100D7
:1000B00082BBA89AAA9A8FE19EE40197F1F700C04B
:1000C0000000AA980895CF93DF93EC0189918111E4
:1000D00003C0DF91CF9108950E945800F7CF8FEFB2
:1000E00081BB87E084BB8FE19EE40197F1F700C0FC
:1000F00000000E944C0080E690E00E946300FFCF69
:04010000F894FFCFA1
:0C01040048656C6C6F20416A6179000056
:00000001FF
