:100000000C942A000C9434000C9434000C943400AA
:100010000C9434000C9434000C9434000C94340090
:100020000C9434000C9434000C9434000C94340080
:100030000C9434000C9434000C9434000C94340070
:100040000C9434000C9434000C9434000C94340060
:100050000C94340011241FBECFE5D4E0DEBFCDBF29
:100060000E94B0000C9434030C940000CF93DF93F3
:10007000CDB7DEB781E390E0FC01208181E390E021
:100080002F60FC0120830000DF91CF910895CF9372
:10009000DF93CDB7DEB782E390E0FC01208182E3FD
:1000A00090E02160FC01208382E390E0FC0120814C
:1000B00082E390E02D7FFC01208382E390E0FC014D
:1000C000208182E390E02B7FFC01208382E390E09B
:1000D000FC01208182E390E02860FC012083000085
:1000E000DF91CF910895CF93DF93CDB7DEB782E351
:1000F00090E0FC01208182E390E02E7FFC012083D0
:1001000082E390E0FC01208182E390E02260FC0128
:10011000208382E390E0FC01208182E390E0246070
:10012000FC01208382E390E0FC01208182E390E0E7
:10013000277FFC0120830000DF91CF910895CF93AA
:10014000DF93CDB7DEB782E390E0FC01208182E34C
:1001500090E0207FFC0120830000DF91CF91089583
:10016000CF93DF93CDB7DEB7AA970FB6F894DEBF73
:100170000FBECDBF0E9436000E94470080E090E095
:10018000AAEFB4E48D8F9E8FAF8FB8A320E030E04C
:100190004AEF54E46D8D7E8D8F8D98A10E949F0251
:1001A000DC01CB0189A39AA3ABA3BCA320E030E080
:1001B00040E85FE369A17AA18BA19CA10E9419028A
:1001C00088232CF481E090E09EA38DA33FC020E023
:1001D0003FEF4FE757E469A17AA18BA19CA10E9450
:1001E0009A0218164CF520E030E040E251E46D8DA3
:1001F0007E8D8F8D98A10E949F02DC01CB01BC01F6
:10020000CD010E941E02DC01CB019EA38DA30FC075
:1002100088EC90E098A78FA38FA198A50197F1F79C
:1002200098A78FA38DA19EA101979EA38DA38DA1B9
:100230009EA1892B69F714C069A17AA18BA19CA109
:100240000E941E02DC01CB019EA38DA38DA19EA165
:100250009AA789A789A59AA50197F1F79AA789A7CF
:100260000E94730080E090E0AAEFB4E48F87988B3F
:10027000A98BBA8B20E030E04AEF54E46F8578898F
:1002800089899A890E949F02DC01CB018B8B9C8B10
:10029000AD8BBE8B20E030E040E85FE36B897C896A
:1002A0008D899E890E94190288232CF481E090E0B8
:1002B000988F8F8B3FC020E03FEF4FE757E46B896B
:1002C0007C898D899E890E949A0218164CF520E03F
:1002D00030E040E251E46F85788989899A890E94EB
:1002E0009F02DC01CB01BC01CD010E941E02DC019A
:1002F000CB01988F8F8B0FC088EC90E09A8F898FFD
:10030000898D9A8D0197F1F79A8F898F8F89988DB2
:100310000197988F8F8B8F89988D892B69F714C0DF
:100320006B897C898D899E890E941E02DC01CB012C
:10033000988F8F8B8F89988D9C8F8B8F8B8D9C8DB9
:100340000197F1F79C8F8B8F0E949F0080E090E0D7
:10035000AAE7B4E489839A83AB83BC8320E030E0CE
:100360004AEF54E469817A818B819C810E949F02CB
:10037000DC01CB018D839E83AF83B88720E030E022
:1003800040E85FE36D817E818F8198850E9419022C
:1003900088232CF481E090E09A8789873FC020E091
:1003A0003FEF4FE757E46D817E818F8198850E94F2
:1003B0009A0218164CF520E030E040E251E46981E1
:1003C0007A818B819C810E949F02DC01CB01BC0160
:1003D000CD010E941E02DC01CB019A8789870FC0E4
:1003E00088EC90E09C878B878B859C850197F1F743
:1003F0009C878B8789859A8501979A8789878985C4
:100400009A85892B69F714C06D817E818F819885CB
:100410000E941E02DC01CB019A87898789859A8513
:100420009E878D878D859E850197F1F79E878D87A5
:10043000A3CE0E944D0208F481E008950E94790243
:1004400088F09F5798F0B92F9927B751B0F0E1F095
:10045000660F771F881F991F1AF0BA95C9F714C045
:10046000B13091F00E949302B1E008950C94930290
:10047000672F782F8827B85F39F0B93FCCF386957E
:1004800077956795B395D9F73EF4909580957095DB
:1004900061957F4F8F4F9F4F0895990F0008550F1B
:1004A000AA0BE0E8FEEF16161706E807F907C0F0FA
:1004B00012161306E407F50798F0621B730B840B02
:1004C000950B39F40A2661F0232B242B252B21F4DC
:1004D00008950A2609F4A140A6958FEF811D811D7C
:1004E000089557FD9058440F551F59F05F3F71F024
:1004F0004795880F97FB991F61F09F3F79F087958B
:100500000895121613061406551FF2CF4695F1DF13
:1005100008C0161617061806991FF1CF86957105A3
:10052000610508940895E894BB2766277727CB01D7
:1005300097F908950E944D0208F48FEF08950E94E4
:10054000B2020C9423030E94150338F00E941C038E
:1005500020F0952311F00C940C030C941203112439
:100560000C9494020E94710270F3959FC1F3950F51
:1005700050E0551F629FF001729FBB27F00DB11D27
:10058000639FAA27F00DB11DAA1F649F6627B00DB7
:10059000A11D661F829F2227B00DA11D621F739FA0
:1005A000B00DA11D621F839FA00D611D221F749FAE
:1005B0003327A00D611D231F849F600D211D822FF5
:1005C000762F6A2F11249F5750409AF0F1F088231C
:1005D0004AF0EE0FFF1FBB1F661F771F881F915049
:1005E0005040A9F79E3F510580F00C940C030C94E9
:1005F00094025F3FE4F3983ED4F386957795679530
:10060000B795F795E7959F5FC1F7FE2B880F911D72
:100610009695879597F9089597F99F6780E870E018
:1006200060E008959FEF80EC089500240A94161668
:10063000170618060906089500240A9412161306D0
:10064000140605060895092E0394000C11F488235E
:1006500052F0BB0F40F4BF2B11F460FF04C06F5F7A
:0C0660007F4F8F4F9F4F0895F894FFCFFD
:00000001FF
